{
  "_format": "hh-sol-artifact-1",
  "contractName": "ValidationRegistry",
  "sourceName": "src/ValidationRegistry.sol",
  "abi": [
    {
      "anonymous": false,
      "inputs": [
        {
          "indexed": true,
          "internalType": "address",
          "name": "agent",
          "type": "address"
        },
        {
          "indexed": true,
          "internalType": "string",
          "name": "decisionId",
          "type": "string"
        },
        {
          "indexed": false,
          "internalType": "bytes32",
          "name": "txHash",
          "type": "bytes32"
        }
      ],
      "name": "DecisionExecuted",
      "type": "event"
    },
    {
      "anonymous": false,
      "inputs": [
        {
          "indexed": true,
          "internalType": "address",
          "name": "agent",
          "type": "address"
        },
        {
          "indexed": true,
          "internalType": "string",
          "name": "decisionId",
          "type": "string"
        },
        {
          "indexed": false,
          "internalType": "bytes32",
          "name": "decisionHash",
          "type": "bytes32"
        },
        {
          "indexed": false,
          "internalType": "uint256",
          "name": "timestamp",
          "type": "uint256"
        }
      ],
      "name": "DecisionLogged",
      "type": "event"
    },
    {
      "inputs": [
        {
          "internalType": "address",
          "name": "",
          "type": "address"
        },
        {
          "internalType": "uint256",
          "name": "",
          "type": "uint256"
        }
      ],
      "name": "agentDecisions",
      "outputs": [
        {
          "internalType": "string",
          "name": "",
          "type": "string"
        }
      ],
      "stateMutability": "view",
      "type": "function"
    },
    {
      "inputs": [
        {
          "internalType": "address",
          "name": "agent",
          "type": "address"
        }
      ],
      "name": "getAgentDecisions",
      "outputs": [
        {
          "internalType": "string[]",
          "name": "",
          "type": "string[]"
        }
      ],
      "stateMutability": "view",
      "type": "function"
    },
    {
      "inputs": [
        {
          "internalType": "address",
          "name": "agent",
          "type": "address"
        }
      ],
      "name": "getDecisionCount",
      "outputs": [
        {
          "internalType": "uint256",
          "name": "",
          "type": "uint256"
        }
      ],
      "stateMutability": "view",
      "type": "function"
    },
    {
      "inputs": [
        {
          "internalType": "address",
          "name": "agent",
          "type": "address"
        },
        {
          "internalType": "string",
          "name": "decisionId",
          "type": "string"
        }
      ],
      "name": "getRecord",
      "outputs": [
        {
          "components": [
            {
              "internalType": "bytes32",
              "name": "decisionHash",
              "type": "bytes32"
            },
            {
              "internalType": "uint256",
              "name": "modelConfidence",
              "type": "uint256"
            },
            {
              "internalType": "uint256",
              "name": "riskScore",
              "type": "uint256"
            },
            {
              "internalType": "uint256",
              "name": "timestamp",
              "type": "uint256"
            },
            {
              "internalType": "bool",
              "name": "executed",
              "type": "bool"
            }
          ],
          "internalType": "struct ValidationRegistry.ValidationRecord",
          "name": "",
          "type": "tuple"
        }
      ],
      "stateMutability": "view",
      "type": "function"
    },
    {
      "inputs": [
        {
          "internalType": "string",
          "name": "decisionId",
          "type": "string"
        },
        {
          "internalType": "bytes32",
          "name": "decisionHash",
          "type": "bytes32"
        },
        {
          "internalType": "uint256",
          "name": "modelConfidence",
          "type": "uint256"
        },
        {
          "internalType": "uint256",
          "name": "riskScore",
          "type": "uint256"
        }
      ],
      "name": "logDecision",
      "outputs": [],
      "stateMutability": "nonpayable",
      "type": "function"
    },
    {
      "inputs": [
        {
          "internalType": "string",
          "name": "decisionId",
          "type": "string"
        }
      ],
      "name": "markExecuted",
      "outputs": [],
      "stateMutability": "nonpayable",
      "type": "function"
    },
    {
      "inputs": [
        {
          "internalType": "address",
          "name": "",
          "type": "address"
        },
        {
          "internalType": "string",
          "name": "",
          "type": "string"
        }
      ],
      "name": "records",
      "outputs": [
        {
          "internalType": "bytes32",
          "name": "decisionHash",
          "type": "bytes32"
        },
        {
          "internalType": "uint256",
          "name": "modelConfidence",
          "type": "uint256"
        },
        {
          "internalType": "uint256",
          "name": "riskScore",
          "type": "uint256"
        },
        {
          "internalType": "uint256",
          "name": "timestamp",
          "type": "uint256"
        },
        {
          "internalType": "bool",
          "name": "executed",
          "type": "bool"
        }
      ],
      "stateMutability": "view",
      "type": "function"
    },
    {
      "inputs": [],
      "name": "totalRecords",
      "outputs": [
        {
          "internalType": "uint256",
          "name": "",
          "type": "uint256"
        }
      ],
      "stateMutability": "view",
      "type": "function"
    },
    {
      "inputs": [
        {
          "internalType": "address",
          "name": "agent",
          "type": "address"
        },
        {
          "internalType": "string",
          "name": "decisionId",
          "type": "string"
        },
        {
          "internalType": "bytes32",
          "name": "expectedHash",
          "type": "bytes32"
        }
      ],
      "name": "verifyDecision",
      "outputs": [
        {
          "internalType": "bool",
          "name": "",
          "type": "bool"
        }
      ],
      "stateMutability": "view",
      "type": "function"
    }
  ],
  "bytecode": "0x608060405234801561001057600080fd5b50610e6c806100206000396000f3fe608060405234801561001057600080fd5b50600436106100935760003560e01c8063bbaf36b511610066578063bbaf36b514610112578063ca685c9f14610169578063d8e77cdb1461017c578063e4da9a01146101ff578063ec0fe9551461021f57600080fd5b8063125f8974146100985780632236fafa146100b45780638c6879c0146100d4578063b2bfb7e6146100fd575b600080fd5b6100a160025481565b6040519081526020015b60405180910390f35b6100c76100c2366004610944565b610242565b6040516100ab91906109b4565b6100a16100e23660046109ce565b6001600160a01b031660009081526001602052604090205490565b61011061010b366004610a32565b6102fb565b005b610125610120366004610a74565b61047f565b6040516100ab9190600060a0820190508251825260208301516020830152604083015160408301526060830151606083015260808301511515608083015292915050565b610110610177366004610ac7565b610523565b6101d561018a366004610b37565b60006020818152928152604090208151808301840180519281529084019290930191909120915280546001820154600283015460038401546004909401549293919290919060ff1685565b6040805195865260208601949094529284019190915260608301521515608082015260a0016100ab565b61021261020d3660046109ce565b6107a2565b6040516100ab9190610bf9565b61023261022d366004610c5b565b610891565b60405190151581526020016100ab565b6001602052816000526040600020818154811061025e57600080fd5b9060005260206000200160009150915050805461027a90610cb5565b80601f01602080910402602001604051908101604052809291908181526020018280546102a690610cb5565b80156102f35780601f106102c8576101008083540402835291602001916102f3565b820191906000526020600020905b8154815290600101906020018083116102d657829003601f168201915b505050505081565b33600090815260208190526040808220905161031a9085908590610cef565b908152602001604051809103902060030154116103735760405162461bcd60e51b8152602060048201526012602482015271111958da5cda5bdb881b9bdd08199bdd5b9960721b60448201526064015b60405180910390fd5b336000908152602081905260409081902090516103939084908490610cef565b9081526040519081900360200190206004015460ff16156103e95760405162461bcd60e51b815260206004820152601060248201526f105b1c9958591e48195e1958dd5d195960821b604482015260640161036a565b336000908152602081905260409081902090516001919061040d9085908590610cef565b908152604051908190036020018120600401805492151560ff199093169290921790915561043e9083908390610cef565b604051908190038120600082529033907f4c2cf291526cc678ee98c354489baa100d36a910490ae4c8b6a026951e2e171d9060200160405180910390a35050565b6040805160a0810182526000808252602080830182905282840182905260608301829052608083018290526001600160a01b038716825281905282902091519091906104ce9085908590610cef565b90815260408051918290036020908101832060a08401835280548452600181015491840191909152600281015491830191909152600381015460608301526004015460ff161515608082015290509392505050565b836105675760405162461bcd60e51b8152602060048201526014602482015273111958da5cda5bdb881251081c995c5d5a5c995960621b604482015260640161036a565b336000908152602081905260409081902090516105879087908790610cef565b9081526020016040518091039020600301546000146105d95760405162461bcd60e51b815260206004820152600e60248201526d105b1c9958591e481b1bd9d9d95960921b604482015260640161036a565b6103e882111561062b5760405162461bcd60e51b815260206004820152601760248201527f436f6e666964656e6365206f7574206f662072616e6765000000000000000000604482015260640161036a565b6103e881111561067d5760405162461bcd60e51b815260206004820152601760248201527f5269736b2073636f7265206f7574206f662072616e6765000000000000000000604482015260640161036a565b6040805160a08101825284815260208082018590528183018490524260608301526000608083018190523381529081905282902091519091906106c39088908890610cef565b90815260408051602092819003830190208351815583830151600180830191909155848301516002830155606085015160038301556080909401516004909101805460ff19169115159190911790553360009081528383529081208054938401815581522001610734858783610d4e565b506002805490600061074583610e0f565b9190505550848460405161075a929190610cef565b604080519182900382208583524260208401529133917fc26c7d4fb835aac0b8c4a3507cba6068ffe3a07fbc2ebb5d4c6829535ecd7b09910160405180910390a35050505050565b6001600160a01b0381166000908152600160209081526040808320805482518185028101850190935280835260609492939192909184015b828210156108865783829060005260206000200180546107f990610cb5565b80601f016020809104026020016040519081016040528092919081815260200182805461082590610cb5565b80156108725780601f1061084757610100808354040283529160200191610872565b820191906000526020600020905b81548152906001019060200180831161085557829003601f168201915b5050505050815260200190600101906107da565b505050509050919050565b6001600160a01b03841660009081526020819052604080822090518291906108bc9087908790610cef565b908152604080516020928190038301812060a08201835280548083526001820154948301949094526002810154928201929092526003820154606082015260049091015460ff161515608082015291508314801561091e575060008160600151115b9695505050505050565b80356001600160a01b038116811461093f57600080fd5b919050565b6000806040838503121561095757600080fd5b61096083610928565b946020939093013593505050565b6000815180845260005b8181101561099457602081850181015186830182015201610978565b506000602082860101526020601f19601f83011685010191505092915050565b6020815260006109c7602083018461096e565b9392505050565b6000602082840312156109e057600080fd5b6109c782610928565b60008083601f8401126109fb57600080fd5b50813567ffffffffffffffff811115610a1357600080fd5b602083019150836020828501011115610a2b57600080fd5b9250929050565b60008060208385031215610a4557600080fd5b823567ffffffffffffffff811115610a5c57600080fd5b610a68858286016109e9565b90969095509350505050565b600080600060408486031215610a8957600080fd5b610a9284610928565b9250602084013567ffffffffffffffff811115610aae57600080fd5b610aba868287016109e9565b9497909650939450505050565b600080600080600060808688031215610adf57600080fd5b853567ffffffffffffffff811115610af657600080fd5b610b02888289016109e9565b9099909850602088013597604081013597506060013595509350505050565b634e487b7160e01b600052604160045260246000fd5b60008060408385031215610b4a57600080fd5b610b5383610928565b9150602083013567ffffffffffffffff80821115610b7057600080fd5b818501915085601f830112610b8457600080fd5b813581811115610b9657610b96610b21565b604051601f8201601f19908116603f01168101908382118183101715610bbe57610bbe610b21565b81604052828152886020848701011115610bd757600080fd5b8260208601602083013760006020848301015280955050505050509250929050565b6000602080830181845280855180835260408601915060408160051b870101925083870160005b82811015610c4e57603f19888603018452610c3c85835161096e565b94509285019290850190600101610c20565b5092979650505050505050565b60008060008060608587031215610c7157600080fd5b610c7a85610928565b9350602085013567ffffffffffffffff811115610c9657600080fd5b610ca2878288016109e9565b9598909750949560400135949350505050565b600181811c90821680610cc957607f821691505b602082108103610ce957634e487b7160e01b600052602260045260246000fd5b50919050565b8183823760009101908152919050565b601f821115610d4957600081815260208120601f850160051c81016020861015610d265750805b601f850160051c820191505b81811015610d4557828155600101610d32565b5050505b505050565b67ffffffffffffffff831115610d6657610d66610b21565b610d7a83610d748354610cb5565b83610cff565b6000601f841160018114610dae5760008515610d965750838201355b600019600387901b1c1916600186901b178355610e08565b600083815260209020601f19861690835b82811015610ddf5786850135825560209485019460019092019101610dbf565b5086821015610dfc5760001960f88860031b161c19848701351681555b505060018560011b0183555b5050505050565b600060018201610e2f57634e487b7160e01b600052601160045260246000fd5b506001019056fea2646970667358221220ae62079b4a090259e0e565074bf05303a4597a9d26af167fde300319830de26364736f6c63430008140033",
  "linkReferences": {},
  "deployedLinkReferences": {}
}