{
  "_format": "hh-sol-artifact-1",
  "contractName": "AgentRegistry",
  "sourceName": "src/AgentRegistry.sol",
  "abi": [
    {
      "inputs": [],
      "stateMutability": "nonpayable",
      "type": "constructor"
    },
    {
      "anonymous": false,
      "inputs": [
        {
          "indexed": true,
          "internalType": "uint256",
          "name": "tokenId",
          "type": "uint256"
        },
        {
          "indexed": true,
          "internalType": "address",
          "name": "owner",
          "type": "address"
        },
        {
          "indexed": false,
          "internalType": "string",
          "name": "name",
          "type": "string"
        }
      ],
      "name": "AgentRegistered",
      "type": "event"
    },
    {
      "anonymous": false,
      "inputs": [
        {
          "indexed": true,
          "internalType": "uint256",
          "name": "tokenId",
          "type": "uint256"
        },
        {
          "indexed": false,
          "internalType": "string",
          "name": "metadataUri",
          "type": "string"
        }
      ],
      "name": "AgentUpdated",
      "type": "event"
    },
    {
      "anonymous": false,
      "inputs": [
        {
          "indexed": true,
          "internalType": "address",
          "name": "owner",
          "type": "address"
        },
        {
          "indexed": true,
          "internalType": "address",
          "name": "approved",
          "type": "address"
        },
        {
          "indexed": true,
          "internalType": "uint256",
          "name": "tokenId",
          "type": "uint256"
        }
      ],
      "name": "Approval",
      "type": "event"
    },
    {
      "anonymous": false,
      "inputs": [
        {
          "indexed": true,
          "internalType": "address",
          "name": "owner",
          "type": "address"
        },
        {
          "indexed": true,
          "internalType": "address",
          "name": "operator",
          "type": "address"
        },
        {
          "indexed": false,
          "internalType": "bool",
          "name": "approved",
          "type": "bool"
        }
      ],
      "name": "ApprovalForAll",
      "type": "event"
    },
    {
      "anonymous": false,
      "inputs": [
        {
          "indexed": true,
          "internalType": "address",
          "name": "previousOwner",
          "type": "address"
        },
        {
          "indexed": true,
          "internalType": "address",
          "name": "newOwner",
          "type": "address"
        }
      ],
      "name": "OwnershipTransferred",
      "type": "event"
    },
    {
      "anonymous": false,
      "inputs": [
        {
          "indexed": true,
          "internalType": "uint256",
          "name": "tokenId",
          "type": "uint256"
        },
        {
          "indexed": false,
          "internalType": "uint256",
          "name": "newScore",
          "type": "uint256"
        }
      ],
      "name": "ReputationUpdated",
      "type": "event"
    },
    {
      "anonymous": false,
      "inputs": [
        {
          "indexed": true,
          "internalType": "address",
          "name": "from",
          "type": "address"
        },
        {
          "indexed": true,
          "internalType": "address",
          "name": "to",
          "type": "address"
        },
        {
          "indexed": true,
          "internalType": "uint256",
          "name": "tokenId",
          "type": "uint256"
        }
      ],
      "name": "Transfer",
      "type": "event"
    },
    {
      "inputs": [
        {
          "internalType": "address",
          "name": "",
          "type": "address"
        }
      ],
      "name": "agentOf",
      "outputs": [
        {
          "internalType": "uint256",
          "name": "",
          "type": "uint256"
        }
      ],
      "stateMutability": "view",
      "type": "function"
    },
    {
      "inputs": [
        {
          "internalType": "uint256",
          "name": "",
          "type": "uint256"
        }
      ],
      "name": "agents",
      "outputs": [
        {
          "internalType": "string",
          "name": "name",
          "type": "string"
        },
        {
          "internalType": "string",
          "name": "metadataUri",
          "type": "string"
        },
        {
          "internalType": "uint256",
          "name": "reputationScore",
          "type": "uint256"
        },
        {
          "internalType": "uint256",
          "name": "registeredAt",
          "type": "uint256"
        },
        {
          "internalType": "bool",
          "name": "active",
          "type": "bool"
        }
      ],
      "stateMutability": "view",
      "type": "function"
    },
    {
      "inputs": [
        {
          "internalType": "address",
          "name": "to",
          "type": "address"
        },
        {
          "internalType": "uint256",
          "name": "tokenId",
          "type": "uint256"
        }
      ],
      "name": "approve",
      "outputs": [],
      "stateMutability": "nonpayable",
      "type": "function"
    },
    {
      "inputs": [
        {
          "internalType": "address",
          "name": "owner",
          "type": "address"
        }
      ],
      "name": "balanceOf",
      "outputs": [
        {
          "internalType": "uint256",
          "name": "",
          "type": "uint256"
        }
      ],
      "stateMutability": "view",
      "type": "function"
    },
    {
      "inputs": [
        {
          "internalType": "uint256",
          "name": "tokenId",
          "type": "uint256"
        }
      ],
      "name": "getAgent",
      "outputs": [
        {
          "components": [
            {
              "internalType": "string",
              "name": "name",
              "type": "string"
            },
            {
              "internalType": "string",
              "name": "metadataUri",
              "type": "string"
            },
            {
              "internalType": "uint256",
              "name": "reputationScore",
              "type": "uint256"
            },
            {
              "internalType": "uint256",
              "name": "registeredAt",
              "type": "uint256"
            },
            {
              "internalType": "bool",
              "name": "active",
              "type": "bool"
            }
          ],
          "internalType": "struct AgentRegistry.AgentInfo",
          "name": "",
          "type": "tuple"
        }
      ],
      "stateMutability": "view",
      "type": "function"
    },
    {
      "inputs": [
        {
          "internalType": "uint256",
          "name": "tokenId",
          "type": "uint256"
        }
      ],
      "name": "getApproved",
      "outputs": [
        {
          "internalType": "address",
          "name": "",
          "type": "address"
        }
      ],
      "stateMutability": "view",
      "type": "function"
    },
    {
      "inputs": [
        {
          "internalType": "address",
          "name": "addr",
          "type": "address"
        }
      ],
      "name": "hasAgent",
      "outputs": [
        {
          "internalType": "bool",
          "name": "",
          "type": "bool"
        }
      ],
      "stateMutability": "view",
      "type": "function"
    },
    {
      "inputs": [
        {
          "internalType": "address",
          "name": "owner",
          "type": "address"
        },
        {
          "internalType": "address",
          "name": "operator",
          "type": "address"
        }
      ],
      "name": "isApprovedForAll",
      "outputs": [
        {
          "internalType": "bool",
          "name": "",
          "type": "bool"
        }
      ],
      "stateMutability": "view",
      "type": "function"
    },
    {
      "inputs": [],
      "name": "name",
      "outputs": [
        {
          "internalType": "string",
          "name": "",
          "type": "string"
        }
      ],
      "stateMutability": "view",
      "type": "function"
    },
    {
      "inputs": [],
      "name": "owner",
      "outputs": [
        {
          "internalType": "address",
          "name": "",
          "type": "address"
        }
      ],
      "stateMutability": "view",
      "type": "function"
    },
    {
      "inputs": [
        {
          "internalType": "uint256",
          "name": "tokenId",
          "type": "uint256"
        }
      ],
      "name": "ownerOf",
      "outputs": [
        {
          "internalType": "address",
          "name": "",
          "type": "address"
        }
      ],
      "stateMutability": "view",
      "type": "function"
    },
    {
      "inputs": [
        {
          "internalType": "string",
          "name": "name",
          "type": "string"
        },
        {
          "internalType": "string",
          "name": "metadataUri",
          "type": "string"
        }
      ],
      "name": "registerAgent",
      "outputs": [
        {
          "internalType": "uint256",
          "name": "",
          "type": "uint256"
        }
      ],
      "stateMutability": "nonpayable",
      "type": "function"
    },
    {
      "inputs": [],
      "name": "renounceOwnership",
      "outputs": [],
      "stateMutability": "nonpayable",
      "type": "function"
    },
    {
      "inputs": [
        {
          "internalType": "address",
          "name": "from",
          "type": "address"
        },
        {
          "internalType": "address",
          "name": "to",
          "type": "address"
        },
        {
          "internalType": "uint256",
          "name": "tokenId",
          "type": "uint256"
        }
      ],
      "name": "safeTransferFrom",
      "outputs": [],
      "stateMutability": "nonpayable",
      "type": "function"
    },
    {
      "inputs": [
        {
          "internalType": "address",
          "name": "from",
          "type": "address"
        },
        {
          "internalType": "address",
          "name": "to",
          "type": "address"
        },
        {
          "internalType": "uint256",
          "name": "tokenId",
          "type": "uint256"
        },
        {
          "internalType": "bytes",
          "name": "data",
          "type": "bytes"
        }
      ],
      "name": "safeTransferFrom",
      "outputs": [],
      "stateMutability": "nonpayable",
      "type": "function"
    },
    {
      "inputs": [
        {
          "internalType": "address",
          "name": "operator",
          "type": "address"
        },
        {
          "internalType": "bool",
          "name": "approved",
          "type": "bool"
        }
      ],
      "name": "setApprovalForAll",
      "outputs": [],
      "stateMutability": "nonpayable",
      "type": "function"
    },
    {
      "inputs": [
        {
          "internalType": "bytes4",
          "name": "interfaceId",
          "type": "bytes4"
        }
      ],
      "name": "supportsInterface",
      "outputs": [
        {
          "internalType": "bool",
          "name": "",
          "type": "bool"
        }
      ],
      "stateMutability": "view",
      "type": "function"
    },
    {
      "inputs": [],
      "name": "symbol",
      "outputs": [
        {
          "internalType": "string",
          "name": "",
          "type": "string"
        }
      ],
      "stateMutability": "view",
      "type": "function"
    },
    {
      "inputs": [
        {
          "internalType": "uint256",
          "name": "tokenId",
          "type": "uint256"
        }
      ],
      "name": "tokenURI",
      "outputs": [
        {
          "internalType": "string",
          "name": "",
          "type": "string"
        }
      ],
      "stateMutability": "view",
      "type": "function"
    },
    {
      "inputs": [
        {
          "internalType": "address",
          "name": "from",
          "type": "address"
        },
        {
          "internalType": "address",
          "name": "to",
          "type": "address"
        },
        {
          "internalType": "uint256",
          "name": "tokenId",
          "type": "uint256"
        }
      ],
      "name": "transferFrom",
      "outputs": [],
      "stateMutability": "nonpayable",
      "type": "function"
    },
    {
      "inputs": [
        {
          "internalType": "address",
          "name": "newOwner",
          "type": "address"
        }
      ],
      "name": "transferOwnership",
      "outputs": [],
      "stateMutability": "nonpayable",
      "type": "function"
    },
    {
      "inputs": [
        {
          "internalType": "uint256",
          "name": "tokenId",
          "type": "uint256"
        },
        {
          "internalType": "string",
          "name": "metadataUri",
          "type": "string"
        }
      ],
      "name": "updateMetadata",
      "outputs": [],
      "stateMutability": "nonpayable",
      "type": "function"
    },
    {
      "inputs": [
        {
          "internalType": "uint256",
          "name": "tokenId",
          "type": "uint256"
        },
        {
          "internalType": "uint256",
          "name": "newScore",
          "type": "uint256"
        }
      ],
      "name": "updateReputation",
      "outputs": [],
      "stateMutability": "nonpayable",
      "type": "function"
    }
  ],
  "bytecode": "0x60806040523480156200001157600080fd5b506040518060400160405280600a81526020016915905413481059d95b9d60b21b815250604051806040016040528060048152602001635641504d60e01b815250816000908162000063919062000190565b50600162000072828262000190565b5050506200008f620000896200009560201b60201c565b62000099565b6200025c565b3390565b600680546001600160a01b038381166001600160a01b0319831681179093556040519116919082907f8be0079c531659141344cd1fd0a4f28419497f9722a3daafe3b4186f6b6457e090600090a35050565b634e487b7160e01b600052604160045260246000fd5b600181811c908216806200011657607f821691505b6020821081036200013757634e487b7160e01b600052602260045260246000fd5b50919050565b601f8211156200018b57600081815260208120601f850160051c81016020861015620001665750805b601f850160051c820191505b81811015620001875782815560010162000172565b5050505b505050565b81516001600160401b03811115620001ac57620001ac620000eb565b620001c481620001bd845462000101565b846200013d565b602080601f831160018114620001fc5760008415620001e35750858301515b600019600386901b1c1916600185901b17855562000187565b600085815260208120601f198616915b828110156200022d578886015182559484019460019091019084016200020c565b50858210156200024c5787850151600019600388901b60f8161c191681555b5050505050600190811b01905550565b611e49806200026c6000396000f3fe608060405234801561001057600080fd5b506004361061014d5760003560e01c80636352211e116100c3578063ac3c0e301161007c578063ac3c0e30146102f2578063b88d4fde14610312578063c87b56dd14610325578063e985e9c514610338578063f2fde38b14610374578063ff17aca41461038757600080fd5b80636352211e1461028a57806370a082311461029d578063715018a6146102be5780638da5cb5b146102c657806395d89b41146102d7578063a22cb465146102df57600080fd5b806323b872dd1161011557806323b872dd146101e25780632de5aaf7146101f557806342842e0e146102155780634aa1124814610228578063513856c81461025357806353c8388e1461027757600080fd5b806301ffc9a7146101525780630675f7631461017a57806306fdde031461018f578063081812fc146101a4578063095ea7b3146101cf575b600080fd5b6101656101603660046116fc565b61039a565b60405190151581526020015b60405180910390f35b61018d610188366004611719565b6103ec565b005b610197610494565b604051610171919061178b565b6101b76101b236600461179e565b610526565b6040516001600160a01b039091168152602001610171565b61018d6101dd3660046117d3565b61054d565b61018d6101f03660046117fd565b610662565b61020861020336600461179e565b610693565b6040516101719190611839565b61018d6102233660046117fd565b61087d565b61016561023636600461189f565b6001600160a01b0316600090815260096020526040902054151590565b61026661026136600461179e565b610898565b6040516101719594939291906118ba565b61018d6102853660046119ab565b6109db565b6101b761029836600461179e565b610a79565b6102b06102ab36600461189f565b610ad9565b604051908152602001610171565b61018d610b5f565b6006546001600160a01b03166101b7565b610197610b73565b61018d6102ed3660046119f2565b610b82565b6102b061030036600461189f565b60096020526000908152604090205481565b61018d610320366004611a2e565b610b91565b61019761033336600461179e565b610bc9565b610165610346366004611aaa565b6001600160a01b03918216600090815260056020908152604080832093909416825291909152205460ff1690565b61018d61038236600461189f565b610c3d565b6102b0610395366004611add565b610cb6565b60006001600160e01b031982166380ac58cd60e01b14806103cb57506001600160e01b03198216635b5e139f60e01b145b806103e657506301ffc9a760e01b6001600160e01b03198316145b92915050565b6103f4610e45565b60648111156104415760405162461bcd60e51b8152602060048201526014602482015273053636f7265206d757374206265203c3d203130360641b60448201526064015b60405180910390fd5b600082815260086020526040908190206002018290555182907ea4f8488cd701f9a77136eb5c91d5e2edef3c38001ca7148525acf8a2626481906104889084815260200190565b60405180910390a25050565b6060600080546104a390611b37565b80601f01602080910402602001604051908101604052809291908181526020018280546104cf90611b37565b801561051c5780601f106104f15761010080835404028352916020019161051c565b820191906000526020600020905b8154815290600101906020018083116104ff57829003601f168201915b5050505050905090565b600061053182610e9f565b506000908152600460205260409020546001600160a01b031690565b600061055882610a79565b9050806001600160a01b0316836001600160a01b0316036105c55760405162461bcd60e51b815260206004820152602160248201527f4552433732313a20617070726f76616c20746f2063757272656e74206f776e656044820152603960f91b6064820152608401610438565b336001600160a01b03821614806105e157506105e18133610346565b6106535760405162461bcd60e51b815260206004820152603d60248201527f4552433732313a20617070726f76652063616c6c6572206973206e6f7420746f60448201527f6b656e206f776e6572206f7220617070726f76656420666f7220616c6c0000006064820152608401610438565b61065d8383610efe565b505050565b61066c3382610f6c565b6106885760405162461bcd60e51b815260040161043890611b71565b61065d838383610feb565b6106c76040518060a00160405280606081526020016060815260200160008152602001600081526020016000151581525090565b6000821180156106d957506007548211155b6107175760405162461bcd60e51b815260206004820152600f60248201526e125b9d985b1a59081d1bdad95b9259608a1b6044820152606401610438565b60008281526008602052604090819020815160a0810190925280548290829061073f90611b37565b80601f016020809104026020016040519081016040528092919081815260200182805461076b90611b37565b80156107b85780601f1061078d576101008083540402835291602001916107b8565b820191906000526020600020905b81548152906001019060200180831161079b57829003601f168201915b505050505081526020016001820180546107d190611b37565b80601f01602080910402602001604051908101604052809291908181526020018280546107fd90611b37565b801561084a5780601f1061081f5761010080835404028352916020019161084a565b820191906000526020600020905b81548152906001019060200180831161082d57829003601f168201915b5050509183525050600282015460208201526003820154604082015260049091015460ff16151560609091015292915050565b61065d83838360405180602001604052806000815250610b91565b6008602052600090815260409020805481906108b390611b37565b80601f01602080910402602001604051908101604052809291908181526020018280546108df90611b37565b801561092c5780601f106109015761010080835404028352916020019161092c565b820191906000526020600020905b81548152906001019060200180831161090f57829003601f168201915b50505050509080600101805461094190611b37565b80601f016020809104026020016040519081016040528092919081815260200182805461096d90611b37565b80156109ba5780601f1061098f576101008083540402835291602001916109ba565b820191906000526020600020905b81548152906001019060200180831161099d57829003601f168201915b50505050600283015460038401546004909401549293909290915060ff1685565b336109e583610a79565b6001600160a01b031614610a2d5760405162461bcd60e51b815260206004820152600f60248201526e2737ba1030b3b2b73a1037bbb732b960891b6044820152606401610438565b6000828152600860205260409020600101610a488282611c0c565b50817ff0677ec077e6eec8e31d4e8be0cb20b797f3a9dc243e2ddc641532c0ff41203682604051610488919061178b565b6000818152600260205260408120546001600160a01b0316806103e65760405162461bcd60e51b8152602060048201526018602482015277115490cdcc8c4e881a5b9d985b1a59081d1bdad95b88125160421b6044820152606401610438565b60006001600160a01b038216610b435760405162461bcd60e51b815260206004820152602960248201527f4552433732313a2061646472657373207a65726f206973206e6f7420612076616044820152683634b21037bbb732b960b91b6064820152608401610438565b506001600160a01b031660009081526003602052604090205490565b610b67610e45565b610b71600061114f565b565b6060600180546104a390611b37565b610b8d3383836111a1565b5050565b610b9b3383610f6c565b610bb75760405162461bcd60e51b815260040161043890611b71565b610bc38484848461126f565b50505050565b6060610bd482610e9f565b6000610beb60408051602081019091526000815290565b90506000815111610c0b5760405180602001604052806000815250610c36565b80610c15846112a2565b604051602001610c26929190611ccc565b6040516020818303038152906040525b9392505050565b610c45610e45565b6001600160a01b038116610caa5760405162461bcd60e51b815260206004820152602660248201527f4f776e61626c653a206e6577206f776e657220697320746865207a65726f206160448201526564647265737360d01b6064820152608401610438565b610cb38161114f565b50565b3360009081526009602052604081205415610d085760405162461bcd60e51b8152602060048201526012602482015271105b1c9958591e481c9959da5cdd195c995960721b6044820152606401610438565b6000835111610d495760405162461bcd60e51b815260206004820152600d60248201526c13985b59481c995c5d5a5c9959609a1b6044820152606401610438565b60078054906000610d5983611cfb565b9091555050600754610d6b3382611335565b6040805160a081018252858152602080820186905260328284015242606083015260016080830152600084815260089091529190912081518190610daf9082611c0c565b5060208201516001820190610dc49082611c0c565b506040828101516002830155606083015160038301556080909201516004909101805460ff19169115159190911790553360008181526009602052829020839055905182907f0d063c6022bff16d09991a9f91882ffa112f5fb2529136f65eb4c77bbd047e4390610e3690889061178b565b60405180910390a39392505050565b6006546001600160a01b03163314610b715760405162461bcd60e51b815260206004820181905260248201527f4f776e61626c653a2063616c6c6572206973206e6f7420746865206f776e65726044820152606401610438565b6000818152600260205260409020546001600160a01b0316610cb35760405162461bcd60e51b8152602060048201526018602482015277115490cdcc8c4e881a5b9d985b1a59081d1bdad95b88125160421b6044820152606401610438565b600081815260046020526040902080546001600160a01b0319166001600160a01b0384169081179091558190610f3382610a79565b6001600160a01b03167f8c5be1e5ebec7d5bd14f71427d1e84f3dd0314c0f7b2291e5b200ac8c7c3b92560405160405180910390a45050565b600080610f7883610a79565b9050806001600160a01b0316846001600160a01b03161480610fbf57506001600160a01b0380821660009081526005602090815260408083209388168352929052205460ff165b80610fe35750836001600160a01b0316610fd884610526565b6001600160a01b0316145b949350505050565b826001600160a01b0316610ffe82610a79565b6001600160a01b0316146110245760405162461bcd60e51b815260040161043890611d22565b6001600160a01b0382166110865760405162461bcd60e51b8152602060048201526024808201527f4552433732313a207472616e7366657220746f20746865207a65726f206164646044820152637265737360e01b6064820152608401610438565b826001600160a01b031661109982610a79565b6001600160a01b0316146110bf5760405162461bcd60e51b815260040161043890611d22565b600081815260046020908152604080832080546001600160a01b03199081169091556001600160a01b0387811680865260038552838620805460001901905590871680865283862080546001019055868652600290945282852080549092168417909155905184937fddf252ad1be2c89b69c2b068fc378daa952ba7f163c4a11628f55a4df523b3ef91a4505050565b600680546001600160a01b038381166001600160a01b0319831681179093556040519116919082907f8be0079c531659141344cd1fd0a4f28419497f9722a3daafe3b4186f6b6457e090600090a35050565b816001600160a01b0316836001600160a01b0316036112025760405162461bcd60e51b815260206004820152601960248201527f4552433732313a20617070726f766520746f2063616c6c6572000000000000006044820152606401610438565b6001600160a01b03838116600081815260056020908152604080832094871680845294825291829020805460ff191686151590811790915591519182527f17307eab39ab6107e8899845ad3d59bd9653f200f220920489ca2b5937696c31910160405180910390a3505050565b61127a848484610feb565b6112868484848461134f565b610bc35760405162461bcd60e51b815260040161043890611d67565b606060006112af83611450565b600101905060008167ffffffffffffffff8111156112cf576112cf6118ff565b6040519080825280601f01601f1916602001820160405280156112f9576020820181803683370190505b5090508181016020015b600019016f181899199a1a9b1b9c1cb0b131b232b360811b600a86061a8153600a850494508461130357509392505050565b610b8d828260405180602001604052806000815250611528565b60006001600160a01b0384163b1561144557604051630a85bd0160e11b81526001600160a01b0385169063150b7a0290611393903390899088908890600401611db9565b6020604051808303816000875af19250505080156113ce575060408051601f3d908101601f191682019092526113cb91810190611df6565b60015b61142b573d8080156113fc576040519150601f19603f3d011682016040523d82523d6000602084013e611401565b606091505b5080516000036114235760405162461bcd60e51b815260040161043890611d67565b805181602001fd5b6001600160e01b031916630a85bd0160e11b149050610fe3565b506001949350505050565b60008072184f03e93ff9f4daa797ed6e38ed64bf6a1f0160401b831061148f5772184f03e93ff9f4daa797ed6e38ed64bf6a1f0160401b830492506040015b6d04ee2d6d415b85acef810000000083106114bb576d04ee2d6d415b85acef8100000000830492506020015b662386f26fc1000083106114d957662386f26fc10000830492506010015b6305f5e10083106114f1576305f5e100830492506008015b612710831061150557612710830492506004015b60648310611517576064830492506002015b600a83106103e65760010192915050565b611532838361155b565b61153f600084848461134f565b61065d5760405162461bcd60e51b815260040161043890611d67565b6001600160a01b0382166115b15760405162461bcd60e51b815260206004820181905260248201527f4552433732313a206d696e7420746f20746865207a65726f20616464726573736044820152606401610438565b6000818152600260205260409020546001600160a01b0316156116165760405162461bcd60e51b815260206004820152601c60248201527f4552433732313a20746f6b656e20616c7265616479206d696e746564000000006044820152606401610438565b6000818152600260205260409020546001600160a01b03161561167b5760405162461bcd60e51b815260206004820152601c60248201527f4552433732313a20746f6b656e20616c7265616479206d696e746564000000006044820152606401610438565b6001600160a01b038216600081815260036020908152604080832080546001019055848352600290915280822080546001600160a01b0319168417905551839291907fddf252ad1be2c89b69c2b068fc378daa952ba7f163c4a11628f55a4df523b3ef908290a45050565b6001600160e01b031981168114610cb357600080fd5b60006020828403121561170e57600080fd5b8135610c36816116e6565b6000806040838503121561172c57600080fd5b50508035926020909101359150565b60005b8381101561175657818101518382015260200161173e565b50506000910152565b6000815180845261177781602086016020860161173b565b601f01601f19169290920160200192915050565b602081526000610c36602083018461175f565b6000602082840312156117b057600080fd5b5035919050565b80356001600160a01b03811681146117ce57600080fd5b919050565b600080604083850312156117e657600080fd5b6117ef836117b7565b946020939093013593505050565b60008060006060848603121561181257600080fd5b61181b846117b7565b9250611829602085016117b7565b9150604084013590509250925092565b602081526000825160a0602084015261185560c084018261175f565b90506020840151601f19848303016040850152611872828261175f565b91505060408401516060840152606084015160808401526080840151151560a08401528091505092915050565b6000602082840312156118b157600080fd5b610c36826117b7565b60a0815260006118cd60a083018861175f565b82810360208401526118df818861175f565b604084019690965250506060810192909252151560809091015292915050565b634e487b7160e01b600052604160045260246000fd5b600067ffffffffffffffff80841115611930576119306118ff565b604051601f8501601f19908116603f01168101908282118183101715611958576119586118ff565b8160405280935085815286868601111561197157600080fd5b858560208301376000602087830101525050509392505050565b600082601f83011261199c57600080fd5b610c3683833560208501611915565b600080604083850312156119be57600080fd5b82359150602083013567ffffffffffffffff8111156119dc57600080fd5b6119e88582860161198b565b9150509250929050565b60008060408385031215611a0557600080fd5b611a0e836117b7565b915060208301358015158114611a2357600080fd5b809150509250929050565b60008060008060808587031215611a4457600080fd5b611a4d856117b7565b9350611a5b602086016117b7565b925060408501359150606085013567ffffffffffffffff811115611a7e57600080fd5b8501601f81018713611a8f57600080fd5b611a9e87823560208401611915565b91505092959194509250565b60008060408385031215611abd57600080fd5b611ac6836117b7565b9150611ad4602084016117b7565b90509250929050565b60008060408385031215611af057600080fd5b823567ffffffffffffffff80821115611b0857600080fd5b611b148683870161198b565b93506020850135915080821115611b2a57600080fd5b506119e88582860161198b565b600181811c90821680611b4b57607f821691505b602082108103611b6b57634e487b7160e01b600052602260045260246000fd5b50919050565b6020808252602d908201527f4552433732313a2063616c6c6572206973206e6f7420746f6b656e206f776e6560408201526c1c881bdc88185c1c1c9bdd9959609a1b606082015260800190565b601f82111561065d57600081815260208120601f850160051c81016020861015611be55750805b601f850160051c820191505b81811015611c0457828155600101611bf1565b505050505050565b815167ffffffffffffffff811115611c2657611c266118ff565b611c3a81611c348454611b37565b84611bbe565b602080601f831160018114611c6f5760008415611c575750858301515b600019600386901b1c1916600185901b178555611c04565b600085815260208120601f198616915b82811015611c9e57888601518255948401946001909101908401611c7f565b5085821015611cbc5787850151600019600388901b60f8161c191681555b5050505050600190811b01905550565b60008351611cde81846020880161173b565b835190830190611cf281836020880161173b565b01949350505050565b600060018201611d1b57634e487b7160e01b600052601160045260246000fd5b5060010190565b60208082526025908201527f4552433732313a207472616e736665722066726f6d20696e636f72726563742060408201526437bbb732b960d91b606082015260800190565b60208082526032908201527f4552433732313a207472616e7366657220746f206e6f6e20455243373231526560408201527131b2b4bb32b91034b6b83632b6b2b73a32b960711b606082015260800190565b6001600160a01b0385811682528416602082015260408101839052608060608201819052600090611dec9083018461175f565b9695505050505050565b600060208284031215611e0857600080fd5b8151610c36816116e656fea264697066735822122045be4e02a2ac5d0324e63d6d469488d46ef67f2cbcd559b8c004e788e576a7e064736f6c63430008140033",
  "linkReferences": {},
  "deployedLinkReferences": {}
}