{
  "_format": "hh-sol-artifact-1",
  "contractName": "TradeExecutor",
  "sourceName": "src/TradeExecutor.sol",
  "abi": [
    {
      "inputs": [
        {
          "internalType": "address",
          "name": "_swapRouter",
          "type": "address"
        },
        {
          "internalType": "address",
          "name": "_weth",
          "type": "address"
        },
        {
          "internalType": "address",
          "name": "_usdc",
          "type": "address"
        }
      ],
      "stateMutability": "nonpayable",
      "type": "constructor"
    },
    {
      "inputs": [],
      "name": "InvalidShortString",
      "type": "error"
    },
    {
      "inputs": [
        {
          "internalType": "string",
          "name": "str",
          "type": "string"
        }
      ],
      "name": "StringTooLong",
      "type": "error"
    },
    {
      "anonymous": false,
      "inputs": [],
      "name": "EIP712DomainChanged",
      "type": "event"
    },
    {
      "anonymous": false,
      "inputs": [
        {
          "indexed": true,
          "internalType": "address",
          "name": "previousOwner",
          "type": "address"
        },
        {
          "indexed": true,
          "internalType": "address",
          "name": "newOwner",
          "type": "address"
        }
      ],
      "name": "OwnershipTransferred",
      "type": "event"
    },
    {
      "anonymous": false,
      "inputs": [
        {
          "indexed": true,
          "internalType": "address",
          "name": "agent",
          "type": "address"
        },
        {
          "indexed": false,
          "internalType": "string",
          "name": "action",
          "type": "string"
        },
        {
          "indexed": false,
          "internalType": "uint256",
          "name": "amountIn",
          "type": "uint256"
        },
        {
          "indexed": false,
          "internalType": "uint256",
          "name": "amountOut",
          "type": "uint256"
        },
        {
          "indexed": false,
          "internalType": "bytes32",
          "name": "decisionHash",
          "type": "bytes32"
        }
      ],
      "name": "TradeExecuted",
      "type": "event"
    },
    {
      "inputs": [],
      "name": "POOL_FEE",
      "outputs": [
        {
          "internalType": "uint24",
          "name": "",
          "type": "uint24"
        }
      ],
      "stateMutability": "view",
      "type": "function"
    },
    {
      "inputs": [],
      "name": "TRADE_INTENT_TYPEHASH",
      "outputs": [
        {
          "internalType": "bytes32",
          "name": "",
          "type": "bytes32"
        }
      ],
      "stateMutability": "view",
      "type": "function"
    },
    {
      "inputs": [],
      "name": "USDC",
      "outputs": [
        {
          "internalType": "address",
          "name": "",
          "type": "address"
        }
      ],
      "stateMutability": "view",
      "type": "function"
    },
    {
      "inputs": [],
      "name": "WETH",
      "outputs": [
        {
          "internalType": "address",
          "name": "",
          "type": "address"
        }
      ],
      "stateMutability": "view",
      "type": "function"
    },
    {
      "inputs": [],
      "name": "eip712Domain",
      "outputs": [
        {
          "internalType": "bytes1",
          "name": "fields",
          "type": "bytes1"
        },
        {
          "internalType": "string",
          "name": "name",
          "type": "string"
        },
        {
          "internalType": "string",
          "name": "version",
          "type": "string"
        },
        {
          "internalType": "uint256",
          "name": "chainId",
          "type": "uint256"
        },
        {
          "internalType": "address",
          "name": "verifyingContract",
          "type": "address"
        },
        {
          "internalType": "bytes32",
          "name": "salt",
          "type": "bytes32"
        },
        {
          "internalType": "uint256[]",
          "name": "extensions",
          "type": "uint256[]"
        }
      ],
      "stateMutability": "view",
      "type": "function"
    },
    {
      "inputs": [
        {
          "components": [
            {
              "internalType": "address",
              "name": "agent",
              "type": "address"
            },
            {
              "internalType": "string",
              "name": "asset",
              "type": "string"
            },
            {
              "internalType": "string",
              "name": "action",
              "type": "string"
            },
            {
              "internalType": "uint256",
              "name": "amount",
              "type": "uint256"
            },
            {
              "internalType": "uint256",
              "name": "maxSlippageBps",
              "type": "uint256"
            },
            {
              "internalType": "uint256",
              "name": "deadline",
              "type": "uint256"
            },
            {
              "internalType": "bytes32",
              "name": "decisionHash",
              "type": "bytes32"
            },
            {
              "internalType": "uint256",
              "name": "nonce",
              "type": "uint256"
            }
          ],
          "internalType": "struct TradeExecutor.TradeIntent",
          "name": "intent",
          "type": "tuple"
        },
        {
          "internalType": "bytes",
          "name": "signature",
          "type": "bytes"
        }
      ],
      "name": "executeTrade",
      "outputs": [
        {
          "internalType": "uint256",
          "name": "amountOut",
          "type": "uint256"
        }
      ],
      "stateMutability": "nonpayable",
      "type": "function"
    },
    {
      "inputs": [],
      "name": "getDomainSeparator",
      "outputs": [
        {
          "internalType": "bytes32",
          "name": "",
          "type": "bytes32"
        }
      ],
      "stateMutability": "view",
      "type": "function"
    },
    {
      "inputs": [
        {
          "internalType": "address",
          "name": "agent",
          "type": "address"
        }
      ],
      "name": "getNonce",
      "outputs": [
        {
          "internalType": "uint256",
          "name": "",
          "type": "uint256"
        }
      ],
      "stateMutability": "view",
      "type": "function"
    },
    {
      "inputs": [
        {
          "internalType": "address",
          "name": "",
          "type": "address"
        }
      ],
      "name": "nonces",
      "outputs": [
        {
          "internalType": "uint256",
          "name": "",
          "type": "uint256"
        }
      ],
      "stateMutability": "view",
      "type": "function"
    },
    {
      "inputs": [],
      "name": "owner",
      "outputs": [
        {
          "internalType": "address",
          "name": "",
          "type": "address"
        }
      ],
      "stateMutability": "view",
      "type": "function"
    },
    {
      "inputs": [],
      "name": "renounceOwnership",
      "outputs": [],
      "stateMutability": "nonpayable",
      "type": "function"
    },
    {
      "inputs": [],
      "name": "swapRouter",
      "outputs": [
        {
          "internalType": "contract ISwapRouter",
          "name": "",
          "type": "address"
        }
      ],
      "stateMutability": "view",
      "type": "function"
    },
    {
      "inputs": [
        {
          "internalType": "address",
          "name": "newOwner",
          "type": "address"
        }
      ],
      "name": "transferOwnership",
      "outputs": [],
      "stateMutability": "nonpayable",
      "type": "function"
    }
  ],
  "bytecode": "0x6101c06040523480156200001257600080fd5b5060405162001e5838038062001e5883398101604081905262000035916200025c565b604080518082018252601381527f5641504d205472616465204578656375746f7200000000000000000000000000602080830191909152825180840190935260018352603160f81b90830152906200008f82600062000168565b61012052620000a081600162000168565b61014052815160208084019190912060e052815190820120610100524660a0526200012e60e05161010051604080517f8b73c3c69bb8fe3d512ecc4cf759cc79239f7b179b0ffacaa9a75d522b39400f60208201529081019290925260608201524660808201523060a082015260009060c00160405160208183030381529060405280519060200120905090565b60805250503060c0526200014233620001a1565b60016003556001600160a01b039283166101605290821661018052166101a0526200048c565b600060208351101562000188576200018083620001f3565b90506200019b565b816200019584826200034b565b5060ff90505b92915050565b600280546001600160a01b038381166001600160a01b0319831681179093556040519116919082907f8be0079c531659141344cd1fd0a4f28419497f9722a3daafe3b4186f6b6457e090600090a35050565b600080829050601f815111156200022a578260405163305a27a960e01b815260040162000221919062000417565b60405180910390fd5b8051620002378262000467565b179392505050565b80516001600160a01b03811681146200025757600080fd5b919050565b6000806000606084860312156200027257600080fd5b6200027d846200023f565b92506200028d602085016200023f565b91506200029d604085016200023f565b90509250925092565b634e487b7160e01b600052604160045260246000fd5b600181811c90821680620002d157607f821691505b602082108103620002f257634e487b7160e01b600052602260045260246000fd5b50919050565b601f8211156200034657600081815260208120601f850160051c81016020861015620003215750805b601f850160051c820191505b8181101562000342578281556001016200032d565b5050505b505050565b81516001600160401b03811115620003675762000367620002a6565b6200037f81620003788454620002bc565b84620002f8565b602080601f831160018114620003b757600084156200039e5750858301515b600019600386901b1c1916600185901b17855562000342565b600085815260208120601f198616915b82811015620003e857888601518255948401946001909101908401620003c7565b5085821015620004075787850151600019600388901b60f8161c191681555b5050505050600190811b01905550565b600060208083528351808285015260005b81811015620004465785810183015185820160400152820162000428565b506000604082860101526040601f19601f8301168501019250505092915050565b80516020808301519190811015620002f25760001960209190910360031b1b16919050565b60805160a05160c05160e05161010051610120516101405161016051610180516101a0516118fc6200055c6000396000818161016d0152818161096f015281816109a401528181610a000152610bce0152600081816101e401528181610a2501528181610b1801528181610b4d0152610ba901526000818161020b015281816109c601528181610a8501528181610b6f0152610c2e0152600061072c0152600061070201526000610e3401526000610e0c01526000610d6701526000610d9101526000610dbb01526118fc6000f3fe608060405234801561001057600080fd5b50600436106100cf5760003560e01c80638da5cb5b1161008c578063c31c9c0711610066578063c31c9c0714610206578063dd1b9c4a1461022d578063ed24911d1461024a578063f2fde38b1461025257600080fd5b80638da5cb5b146101a7578063912e67cf146101b8578063ad5c4648146101df57600080fd5b80632d0335ab146100d4578063715018a6146101105780637ce201ab1461011a5780637ecebe001461012d57806384b0196e1461014d57806389a3027114610168575b600080fd5b6100fd6100e236600461152f565b6001600160a01b031660009081526004602052604090205490565b6040519081526020015b60405180910390f35b610118610265565b005b6100fd610128366004611558565b610279565b6100fd61013b36600461152f565b60046020526000908152604090205481565b6101556106f4565b6040516101079796959493929190611648565b61018f7f000000000000000000000000000000000000000000000000000000000000000081565b6040516001600160a01b039091168152602001610107565b6002546001600160a01b031661018f565b6100fd7f69db577853b3b9bbef0ed5ef8b19774bc16d6d97c6bc48fb62e2201e69ec5eee81565b61018f7f000000000000000000000000000000000000000000000000000000000000000081565b61018f7f000000000000000000000000000000000000000000000000000000000000000081565b610236610bb881565b60405162ffffff9091168152602001610107565b6100fd61077c565b61011861026036600461152f565b61078b565b61026d610804565b610277600061085e565b565b60006102836108b0565b8360a001354211156102cd5760405162461bcd60e51b815260206004820152600e60248201526d125b9d195b9d08195e1c1a5c995960921b60448201526064015b60405180910390fd5b600460006102de602087018761152f565b6001600160a01b03166001600160a01b03168152602001908152602001600020548460e00135146103415760405162461bcd60e51b815260206004820152600d60248201526c496e76616c6964206e6f6e636560981b60448201526064016102c4565b60046000610352602087018761152f565b6001600160a01b0316815260208101919091526040016000908120805491610379836116de565b90915550600090507f69db577853b3b9bbef0ed5ef8b19774bc16d6d97c6bc48fb62e2201e69ec5eee6103af602087018761152f565b6103bc6020880188611705565b6040516103ca92919061174c565b60405180910390208780604001906103e29190611705565b6040516103f092919061174c565b6040519081900381206104699493929160608b01359060808c01359060a08d01359060c08e01359060e08f0135906020019889526001600160a01b0397909716602089015260408801959095526060870193909352608086019190915260a085015260c084015260e08301526101008201526101200190565b604051602081830303815290604052805190602001209050600061048c82610909565b905060006104d08287878080601f01602080910402602001604051908101604052809392919081815260200183838082843760009201919091525061093c92505050565b90506104df602088018861152f565b6001600160a01b0316816001600160a01b0316146105335760405162461bcd60e51b8152602060048201526011602482015270496e76616c6964207369676e617475726560781b60448201526064016102c4565b604080518082018252600381526242555960e81b6020909101527f8e9b148654316179bd45e9ec5f0b575ae8288e79df16d7be748ec9a9bdca8b4c9061057b90890189611705565b60405161058992919061174c565b6040518091039020036105bc576105b56105a6602089018961152f565b88606001358960800135610960565b9350610678565b604080518082018252600481526314d1531360e21b6020909101527f46e2aa85b4ea4837644e46fe22acb44743da12e349006c0093a61f6bf09676029061060590890189611705565b60405161061392919061174c565b60405180910390200361063f576105b5610630602089018961152f565b88606001358960800135610b09565b60405162461bcd60e51b815260206004820152600e60248201526d24b73b30b634b21030b1ba34b7b760911b60448201526064016102c4565b610685602088018861152f565b6001600160a01b03167f8f2ea547b50e1bb0c9f1be57b5ac7906310533606c449cef4ee083be19c3845a6106bc60408a018a611705565b8a60600135888c60c001356040516106d895949392919061175c565b60405180910390a25050506106ed6001600355565b9392505050565b6000606080828080836107277f000000000000000000000000000000000000000000000000000000000000000083610caf565b6107527f00000000000000000000000000000000000000000000000000000000000000006001610caf565b60408051600080825260208201909252600f60f81b9b939a50919850469750309650945092509050565b6000610786610d5a565b905090565b610793610804565b6001600160a01b0381166107f85760405162461bcd60e51b815260206004820152602660248201527f4f776e61626c653a206e6577206f776e657220697320746865207a65726f206160448201526564647265737360d01b60648201526084016102c4565b6108018161085e565b50565b6002546001600160a01b031633146102775760405162461bcd60e51b815260206004820181905260248201527f4f776e61626c653a2063616c6c6572206973206e6f7420746865206f776e657260448201526064016102c4565b600280546001600160a01b038381166001600160a01b0319831681179093556040519116919082907f8be0079c531659141344cd1fd0a4f28419497f9722a3daafe3b4186f6b6457e090600090a35050565b6002600354036109025760405162461bcd60e51b815260206004820152601f60248201527f5265656e7472616e637947756172643a207265656e7472616e742063616c6c0060448201526064016102c4565b6002600355565b6000610936610916610d5a565b8360405161190160f01b8152600281019290925260228201526042902090565b92915050565b600080600061094b8585610e85565b9150915061095881610eca565b509392505050565b60006109976001600160a01b037f000000000000000000000000000000000000000000000000000000000000000016853086611014565b6109eb6001600160a01b037f0000000000000000000000000000000000000000000000000000000000000000167f000000000000000000000000000000000000000000000000000000000000000085611085565b60408051610100810182526001600160a01b037f0000000000000000000000000000000000000000000000000000000000000000811682527f000000000000000000000000000000000000000000000000000000000000000081166020830152610bb882840152868116606083015242608083015260a08201869052600060c0830181905260e08301819052925163414bf38960e01b81527f00000000000000000000000000000000000000000000000000000000000000009091169063414bf38990610abc9084906004016117a3565b6020604051808303816000875af1158015610adb573d6000803e3d6000fd5b505050506040513d601f19601f82011682018060405250810190610aff919061180c565b9695505050505050565b6000610b406001600160a01b037f000000000000000000000000000000000000000000000000000000000000000016853086611014565b610b946001600160a01b037f0000000000000000000000000000000000000000000000000000000000000000167f000000000000000000000000000000000000000000000000000000000000000085611085565b60408051610100810182526001600160a01b037f0000000000000000000000000000000000000000000000000000000000000000811682527f000000000000000000000000000000000000000000000000000000000000000081166020830152610bb882840152868116606083015242608083015260a08201869052600060c0830181905260e0830152915163414bf38960e01b815290917f0000000000000000000000000000000000000000000000000000000000000000169063414bf38990610c639084906004016117a3565b6020604051808303816000875af1158015610c82573d6000803e3d6000fd5b505050506040513d601f19601f82011682018060405250810190610ca6919061180c565b95945050505050565b606060ff8314610cc957610cc28361119f565b9050610936565b818054610cd590611825565b80601f0160208091040260200160405190810160405280929190818152602001828054610d0190611825565b8015610d4e5780601f10610d2357610100808354040283529160200191610d4e565b820191906000526020600020905b815481529060010190602001808311610d3157829003601f168201915b50505050509050610936565b6000306001600160a01b037f000000000000000000000000000000000000000000000000000000000000000016148015610db357507f000000000000000000000000000000000000000000000000000000000000000046145b15610ddd57507f000000000000000000000000000000000000000000000000000000000000000090565b610786604080517f8b73c3c69bb8fe3d512ecc4cf759cc79239f7b179b0ffacaa9a75d522b39400f60208201527f0000000000000000000000000000000000000000000000000000000000000000918101919091527f000000000000000000000000000000000000000000000000000000000000000060608201524660808201523060a082015260009060c00160405160208183030381529060405280519060200120905090565b6000808251604103610ebb5760208301516040840151606085015160001a610eaf878285856111de565b94509450505050610ec3565b506000905060025b9250929050565b6000816004811115610ede57610ede61185f565b03610ee65750565b6001816004811115610efa57610efa61185f565b03610f475760405162461bcd60e51b815260206004820152601860248201527f45434453413a20696e76616c6964207369676e6174757265000000000000000060448201526064016102c4565b6002816004811115610f5b57610f5b61185f565b03610fa85760405162461bcd60e51b815260206004820152601f60248201527f45434453413a20696e76616c6964207369676e6174757265206c656e6774680060448201526064016102c4565b6003816004811115610fbc57610fbc61185f565b036108015760405162461bcd60e51b815260206004820152602260248201527f45434453413a20696e76616c6964207369676e6174757265202773272076616c604482015261756560f01b60648201526084016102c4565b6040516001600160a01b038085166024830152831660448201526064810182905261107f9085906323b872dd60e01b906084015b60408051601f198184030181529190526020810180516001600160e01b03166001600160e01b0319909316929092179091526112a2565b50505050565b8015806110ff5750604051636eb1769f60e11b81523060048201526001600160a01b03838116602483015284169063dd62ed3e90604401602060405180830381865afa1580156110d9573d6000803e3d6000fd5b505050506040513d601f19601f820116820180604052508101906110fd919061180c565b155b61116a5760405162461bcd60e51b815260206004820152603660248201527f5361666545524332303a20617070726f76652066726f6d206e6f6e2d7a65726f60448201527520746f206e6f6e2d7a65726f20616c6c6f77616e636560501b60648201526084016102c4565b6040516001600160a01b03831660248201526044810182905261119a90849063095ea7b360e01b90606401611048565b505050565b606060006111ac83611377565b604080516020808252818301909252919250600091906020820181803683375050509182525060208101929092525090565b6000807f7fffffffffffffffffffffffffffffff5d576e7357a4501ddfe92f46681b20a08311156112155750600090506003611299565b6040805160008082526020820180845289905260ff881692820192909252606081018690526080810185905260019060a0016020604051602081039080840390855afa158015611269573d6000803e3d6000fd5b5050604051601f1901519150506001600160a01b03811661129257600060019250925050611299565b9150600090505b94509492505050565b60006112f7826040518060400160405280602081526020017f5361666545524332303a206c6f772d6c6576656c2063616c6c206661696c6564815250856001600160a01b031661139f9092919063ffffffff16565b90508051600014806113185750808060200190518101906113189190611875565b61119a5760405162461bcd60e51b815260206004820152602a60248201527f5361666545524332303a204552433230206f7065726174696f6e20646964206e6044820152691bdd081cdd58d8d9595960b21b60648201526084016102c4565b600060ff8216601f81111561093657604051632cd44ac360e21b815260040160405180910390fd5b60606113ae84846000856113b6565b949350505050565b6060824710156114175760405162461bcd60e51b815260206004820152602660248201527f416464726573733a20696e73756666696369656e742062616c616e636520666f6044820152651c8818d85b1b60d21b60648201526084016102c4565b600080866001600160a01b031685876040516114339190611897565b60006040518083038185875af1925050503d8060008114611470576040519150601f19603f3d011682016040523d82523d6000602084013e611475565b606091505b509150915061148687838387611491565b979650505050505050565b606083156115005782516000036114f9576001600160a01b0385163b6114f95760405162461bcd60e51b815260206004820152601d60248201527f416464726573733a2063616c6c20746f206e6f6e2d636f6e747261637400000060448201526064016102c4565b50816113ae565b6113ae83838151156115155781518083602001fd5b8060405162461bcd60e51b81526004016102c491906118b3565b60006020828403121561154157600080fd5b81356001600160a01b03811681146106ed57600080fd5b60008060006040848603121561156d57600080fd5b833567ffffffffffffffff8082111561158557600080fd5b90850190610100828803121561159a57600080fd5b909350602085013590808211156115b057600080fd5b818601915086601f8301126115c457600080fd5b8135818111156115d357600080fd5b8760208285010111156115e557600080fd5b6020830194508093505050509250925092565b60005b838110156116135781810151838201526020016115fb565b50506000910152565b600081518084526116348160208601602086016115f8565b601f01601f19169290920160200192915050565b60ff60f81b881681526000602060e08184015261166860e084018a61161c565b838103604085015261167a818a61161c565b606085018990526001600160a01b038816608086015260a0850187905284810360c0860152855180825283870192509083019060005b818110156116cc578351835292840192918401916001016116b0565b50909c9b505050505050505050505050565b6000600182016116fe57634e487b7160e01b600052601160045260246000fd5b5060010190565b6000808335601e1984360301811261171c57600080fd5b83018035915067ffffffffffffffff82111561173757600080fd5b602001915036819003821315610ec357600080fd5b8183823760009101908152919050565b60808152846080820152848660a0830137600060a08683010152600060a0601f19601f88011683010190508460208301528360408301528260608301529695505050505050565b81516001600160a01b03908116825260208084015182169083015260408084015162ffffff16908301526060808401518216908301526080808401519083015260a0838101519083015260c0808401519083015260e09283015116918101919091526101000190565b60006020828403121561181e57600080fd5b5051919050565b600181811c9082168061183957607f821691505b60208210810361185957634e487b7160e01b600052602260045260246000fd5b50919050565b634e487b7160e01b600052602160045260246000fd5b60006020828403121561188757600080fd5b815180151581146106ed57600080fd5b600082516118a98184602087016115f8565b9190910192915050565b6020815260006106ed602083018461161c56fea2646970667358221220f9e3ef8b18a655442c0e8acdb161f807a4218932637f9f0b5f91070dda59d10464736f6c63430008140033",
  "linkReferences": {},
  "deployedLinkReferences": {}
}